:020000040800F2
:10000000181E00204D020008893F0008C73700086D
:10001000493E0008A11F0008154900080000000023
:1000200000000000000000000000000099420008ED
:10003000A31F0008000000008B3F00089D4300083C
:1000400067020008670200086702000867020008EC
:1000500067020008670200086702000867020008DC
:1000600067020008670200086702000867020008CC
:1000700067020008670200086702000867020008BC
:1000800067020008670200086702000867020008AC
:10009000670200086702000867020008670200089C
:1000A000F54300080D4400080144000867020008F9
:1000B000670200086702000867020008670200087C
:1000C000670200086702000867020008670200086C
:1000D00067020008E9480008670200086702000894
:1000E000A51F0008670200086702000867020008F1
:1000F000670200086702000867020008670200083C
:10010000670200086702000867020008670200082B
:100110006702000867020008670200081944000827
:10012000670200086702000867020008670200080B
:1001300067020008670200086702000867020008FB
:1001400067020008670200086702000867020008EB
:1001500067020008670200086702000867020008DB
:1001600067020008670200086702000867020008CB
:10017000670200086702000867020008000000002C
:10018000670200086702000800F002F800F04FF86C
:100190000AA090E8000C82448344AAF10107DA45E2
:1001A00001D100F044F8AFF2090EBAE80F0013F0E5
:1001B000010F18BFFB1A43F00103184748700000F5
:1001C00068700000103A24BF78C878C1FAD8520786
:1001D00024BF30C830C144BF04680C6070470000C1
:1001E0000023002400250026103A28BF78C1FBD840
:1001F000520728BF30C148BF0B607047662906F020
:10020000BB81002070471FB506F0A9F900F068FC1B
:1002100004000020002105F029FF401C6060002040
:10022000002105F00DFFE0601FBD10B510BD00F00E
:1002300083FD1146FFF7E7FF04F0E4FE01F026F826
:1002400003B4FFF7F2FF03BC04F060FE09488047E7
:1002500009480047FEE7FEE7FEE7FEE7FEE7FEE7A8
:10026000FEE7FEE7FEE7FEE704480549054A064BC0
:1002700070470000A14300088901000818180020F9
:10028000181E0020181A0020181A0020704753EA80
:10029000020C00F069802DE9F04B4FF00006002BB6
:1002A0001FBFB3FA83F503FA05F424FA05F65E409E
:1002B00012BF1643B2FA82F502FA05F4C5F1200521
:1002C0001EBF22FA05FC44EA0C04203556EA044C11
:1002D0004FEA144418BF641C4FF000084FF00009A7
:1002E000904271EB030C39D3002919BFB1FA81F7A1
:1002F00001FA07F6B0FA80F700FA07F6C7F120070F
:100300001EBF20FA07FC46EA0C062037B6FBF4FCB9
:10031000A7EB0507103F07F01F0BCBF120060CFAE7
:100320000BFB2CFA06F644BFB3460026202FA4BFD1
:100330005E464FF0000B5BEA060C08BF4FF0010B66
:1003400019EB0B09ABFB027C48EB0608C01B06FB54
:1003500002CC0BFB03CC71EB0C01C1E70B46024650
:1003600041464846BDE8F08B13B54FF000004FF012
:100370000001AFF30080BDE81C4070470FB41CB50E
:10038000074B06AA7B4469460090059800F03DFBA8
:100390000020694600F04CFB1CBC5DF814FB00001B
:1003A000A90600002DE9F0474FF0000A89460446EF
:1003B000C0F820A02046E1688847002876D025288C
:1003C00006D0D4E901219047206A401C2062F1E761
:1003D000E168204600258847C4F81CA0064600278F
:1003E000C4F818A02A2E09D0304604F088FD38B38E
:1003F00004EB8708303EC8F8186019E059F8041B70
:10040000204604EB87029161E1688847012F064688
:1004100018D1E069002820DA25F020051DE0D8F881
:10042000180000EB800006EB40003038C8F81800D8
:100430002046E1688847064604F061FD0028EED1B9
:10044000012F0AD02E2E08D12046E16888477F1C54
:100450000646022F45F02005C4DBA069002803DA18
:10046000404245F00105A061E80701D025F01005E4
:10047000B6B1A6F14100192802D8203645F400652E
:100480004A463146204625604D46FFF7B7FE58B133
:10049000012806D0ED1D25F0070000F1080989E7C5
:1004A00004E005F1040985E730468AE7206ABDE8E3
:1004B000F0874FF000020429C0F0128010F0030C06
:1004C00000F01B80CCF1040CBCF1020F18BF00F847
:1004D000012BA8BF20F8022BA1EB0C0100F00DB8F6
:1004E0005FEAC17C24BF00F8012B00F8012B48BF54
:1004F00000F8012B70474FF0000200B513469446F8
:100500009646203922BFA0E80C50A0E80C50B1F16B
:100510002001BFF4F7AF090728BFA0E80C5048BF7F
:100520000CC05DF804EB890028BF40F8042B08BF1D
:10053000704748BF20F8022B11F0804F18BF00F819
:10054000012B70474FF0013C50F8042B51F8043B4D
:100550009A4221D1A2EB0C03934313EACC1317D197
:1005600050F8042B51F8043B9A4215D1A2EB0C032E
:10057000934313EACC130BD150F8042B51F8043BEE
:100580009A4209D1A2EB0C03934313EACC13DBD0BC
:100590004FF00000704700BFD01A01BAB1FA81F1E4
:1005A00001F0180122FA01F0CB40C1F12001DBB2C9
:1005B000C0B2C01A2CFA01F3D11A914311EAC31147
:1005C000E6D17047704770477047704710B500F02C
:1005D0008BFA006810BD10B5044600F085FA04607F
:1005E00010BD70472DE9FF4F0C461E464FF0FF37F8
:1005F0008BB0D2E90001DDF860800A908A46C1F331
:100600000A5505B93D46002108464FF00000BAF1F1
:10061000000F00F4400005DA00EB80004FF44001C9
:1006200001EA50004FEA9059B9F1010F00DDB946D7
:100630000A9850EA4A000ED044F61050A5F2FF3551
:1006400045432F14B8F1000F1ED07542291E1EDD40
:10065000C9F100021CE0B8F1010F4FF0000001D019
:10066000302103E0F24305E02154401CB042FBDBA3
:1006700030460022002121540B99C1F80880C1E9BD
:1006800000200FB0BDE8F08FBD1B6D1CDEE74A46B1
:1006900000DA694206A800F0D9FA06AB93E8070031
:1006A00003AB83E8070050460A9901F044F88DE84F
:1006B0000700A0F500501F3800900398002D0ADDB8
:1006C00042F21F014A460844002303A903906846EA
:1006D00001F0F0FA09E0A0F500504A461F38002367
:1006E00003A90390684601F00FFB8DE807000004A2
:1006F000000C03D04FF0FF30410800E01046B8F185
:10070000000F03D00022009215461EE0751E05D48E
:1007100000F0EEF9303262556D1EF9D5B346012274
:10072000084302D000227F1C04E02078302801D149
:1007300000227F1E002A099784D01DE0112D07DAC0
:1007400000F0D6F9303262556D1C50EA0102F5D145
:10075000084302D00098C8B10EE00021681E05E0F1
:10076000235C625C63542254401E491C8142F7DBC7
:10077000AB46A81B401E0990002004F80B000B9804
:10078000099AC0F80880C0E9002B7AE711264FF0DB
:10079000000857E72DE9F04F88460446D21D22F0A5
:1007A000070191B0D1E90001CDE90A0104F04CFA4A
:1007B00002460B98C00F01D02D2007E0206881076A
:1007C00001D52B2002E0202101EAC000032A099074
:1007D00001D0072A05DB03464146204600F0D6F942
:1007E0000BE12078800601D5E06900E00620B8F131
:1007F000650F814606D0B8F1660F18D0B8F1670FC3
:1008000070D131E00020B9F1110F009001DB11230C
:1008100001E009F101030AAA01A90CA8FFF7E2FE11
:10082000DDE90C70002609F10105834647E001204F
:100830004B4600904FF000470AAA01A90CA8FFF709
:10084000D1FEDDE90DB00C995D46002610B909F125
:1008500001000D18B9EB050003D4C0F1FF3609F112
:100860000105A5EB09002BE0B9F1010F01DA4FF00A
:1008700001090020B9F1110F0090484601DD112354
:1008800000E003460AAA01A90CA8FFF7ABFEDDE9C8
:100890000C704D4600268346207800070AD4AB45ED
:1008A00000DA5D4601A8012D04DD411911F8011C93
:1008B000302907D04F4502DA17F1040F04DA01207E
:1008C00082460FE06D1EEEE7002F02DCED1B3E447A
:1008D00003E0781CA84200DD7D1CB81B00F1010A72
:1008E0004FF000472078000703D4AA4501DB4FF002
:1008F000FF3A0021B7F1004F0DF143088DF8431086
:1009000024D002202B23002F01DA7F422D230A213D
:10091000021EA0F1010000DC5FB197FBF1FC97FB28
:10092000F1F201FB1C7C17460CF1300C08F801CDEC
:10093000EEE7A8F1010003702188090501D54521E2
:1009400000E06521A0F1010800F8011C09980FA939
:10095000A1EB0807FF1D00B10120411901EBEA706E
:10096000A1693844081A401EA0612078C00602D44C
:100970002046AFF30080099828B1D4E901219047BF
:10098000206A401C20622078C00622D52046AFF3A2
:1009900000801EE0002E04DBB34502DD01A8805D6F
:1009A00000E03020D4E901219047206A401C2062F9
:1009B000761CAAF101005FEA000A0AD100F090F863
:1009C000C0680168405CD4E901219047206A401C5E
:1009D0002062281EA5F10105DCDC07E0D4E9012135
:1009E00018F8010B9047206A401C2062381EA7F1BE
:1009F0000107F3DC2046AFF30080032011B041E68D
:100A000001694A1C02610878704700B58FB0CDE9D2
:100A100001310021059105497944CDE903101146C2
:100A20006846FFF7BFFC0FB000BD0000E5FFFFFF09
:100A30000A6802F8010B0A60704700000FB4002337
:100A400000B589B00CA900910B99CB60214B7B4478
:100A50000693214B7B44079304236FF00042CDE9BA
:100A600001321E4A7A446B4608920246002005F085
:100A7000E5FD09B05DF814FB70B506464FF0FF3098
:100A800015460C46324686B00091CDE90101694613
:100A90000020049004A8FFF7D1FF02460498211813
:100AA00025B108B1084600E02046286004980028D7
:100AB0000DD0002A02DD0098884208D03246081B7B
:100AC00069460094CDE9010404A8FFF7B7FF06B01A
:100AD00070BD0000BB010000D30100001301000045
:100AE00000487047D817002000487047B81700200A
:100AF00030B5B0F10A024FEA900E71F100034EEAF0
:100B0000817EB0EB0E0061EB91014FEA101E4EEAC0
:100B1000017E10EB0E0041EB11114FEA102E4EEA50
:100B2000016E10EB0E0041EB11214FEA104E4EEA20
:100B3000014E10EB0E0041EB1141401841F1000154
:100B40004FEAD00040EA41704FEAD10110EB800536
:100B50004FEA810444EA907444EB01046D1944EBBC
:100B60000404521BA3414FF0000348BF0A3200D5D2
:100B700030BD401C41F1000130BD10B5044600F00D
:100B800001F90068005D00F0010010BD2DE9F041A1
:100B90001F46044603260168072A01F4006004DBAF
:100BA00008B116A505E016A503E008B115A500E0FB
:100BB00015A521F010002060A069C01EA0610FB132
:100BC000401EA0612046AFF300804FB1D4E901215F
:100BD00038469047206A401C2062C01C206206E014
:100BE000206AFAE7D4E9012115F8010B9047761E37
:100BF000F8D22046AFF30080BDE8F0814E414E00B0
:100C00006E616E00494E4600696E6600426842B1F0
:100C1000016811F8013B23B1521EC0E900121846C9
:100C200070470121C160881E704742685AB1C3688D
:100C3000016843B983688B4205D0491E521CC0E944
:100C40000012002070474FF0FF3070472DE9F04749
:100C5000814616468AB0354878440DC88DE80D00A7
:100C600032487844801C03AC0DC884E80D0041F67E
:100C70009B300844372190FBF1F290FBF1F5A5F190
:100C8000800501FB12041B3C02D56442012000E0F8
:100C90000020DFF898A080460027FA44AAF1BE0A97
:100CA0000EE0E0070AD03246684607EB4701012311
:100CB0000AEB810101F028F88DE8070064107F1C21
:100CC000002CEED1194F7F44AE3F19E0E80715D054
:100CD00007EB04100DF1180A90E80E008AE80E00E8
:100CE000C068F04201D1981908903246012306A944
:100CF00003A801F009F803AB83E807006D10641C3A
:100D0000002DE3D14FF0010332466946B8F1000FE0
:100D100003A802D000F0CEFF01E000F0F5FFC9E922
:100D20000001C9F808200AB0BDE8F0879864000007
:100D300000487047B81700207546FFF7F9FFAE4628
:100D400005006946534620F00700854618B020B5D7
:100D5000FFF78AFABDE820404FF000064FF0000789
:100D60004FF000084FF0000B21F00701AC46ACE853
:100D7000C009ACE8C009ACE8C009ACE8C0098D46C0
:100D80007047000010B5FFF7ABFE001D10BD00BF9F
:100D9000DD5200002DE9FF4F06468BB00878FF2892
:100DA00006D0491C2D2805D000244FF0000908E08A
:100DB00000200CE00124F8E709EB8903491C00EB53
:100DC00043090878FF28F7D114B1C9F10000814622
:100DD000107800252C46AA4629462D2801D02B281C
:100DE00004D1521C2D2813D0002082468B46107847
:100DF000FF280FD04FF0000C0A21521CA5FB0178F0
:100E000004FB018105FB0C11C5194BEB0104EEE756
:100E10000120EAE7002108464FF00000BAF1000F78
:100E200002D000EB80004008C0F38157012F01DDA4
:100E30004FF0FF370E9955EA040009EB01080BD07B
:100E40004FF0020918F5FA7F16DA4FEACA70002F40
:100E5000706008DD012007E04FEACA70C6E900B003
:100E60000FB0BDE8F08F00203060FFF73DFEC0F806
:100E700000901821084616E0B8F5FA7F18DD002F1B
:100E800002DAF748784401E0F6487844D0E90010E7
:100E9000C6E9001040EACA707060FFF725FEC0F88E
:100EA0000090142108460FB0BDE8F04F05F061BB7B
:100EB000002108464FF00000B8F10001099002DA65
:100EC000C7F1000200E03A4601DAC8F1000106A8C5
:100ED000FFF7BCFE06AB93E8070003AB83E807000F
:100EE00044F23E005BEA04010090584604D144F20B
:100EF0001E012C465D460091210C0904014306D1D8
:100F00000099240444EA15442D041039009104F09A
:100F10007F41014306D10099240244EA15642D0261
:100F20000839009104F07041014306D10099240171
:100F300044EA15742D01091F009104F0404101435A
:100F400006D10099A40044EA9574AD00891E009171
:100F500004F00041084304D100986D196441401E1B
:100F600000904FF001033A466846B8F1000FCDE912
:100F7000014503A902DD00F0DCFE01E000F0AFFE58
:100F8000BAF1000F04460D4601D084F00044002160
:100F900008464FF00000099940F2FF77484010F0F2
:100FA0000C0F07D124F00040284303D0C4F30A50AB
:100FB000B84212D1FFF798FDC0F80090C4F30A5070
:100FC000B8420AD1A8487844D0E90010C6E9001018
:100FD00004F000410843706042E7C6E900543FE76F
:100FE0002DE9FF4F1F464FF0000A4FF0FF384546EE
:100FF00091B0D7E90146CDF83CA0FFF771FDC0687C
:101000000168405C1090B96912986D1C8847396A74
:10101000814688470028F6D1B9F1FF3F0AD0002E5B
:1010200024F4D06411DDB9F12B0F08D0B9F12D0FE4
:101030000BD102E0404615B013E744F48064B9696F
:1010400012986D1C8847761E8146600504A901D55B
:101050002D2000E02B20002E01F1010B0DF13008B6
:101060008DF810003FDDB9F1690F08D0B9F1490FD3
:1010700005D0B9F16E0F02D0B9F14E0F1CD13B462D
:1010800001A8009580E85002DDE912126FF002001D
:1010900005F0D8FAC11CCED10EE0B96912986D1CCA
:1010A000884781461398761E44F4007405600F98B3
:1010B000401C002E0F9016DDB9F1300FEDD0B9F1C4
:1010C000780F02D0B9F1580F0DD10F9801280AD12D
:1010D0003B46CDE90054DDE91212001F029605F0EF
:1010E000AFFAC11CA7D1109989453ED144F08004C4
:1010F00006E01399681CAAF1010A44F40074086020
:10110000B9696D1C1298761E884730288146F0D048
:101110002BE01099894505D1200603D4761E44F0B2
:10112000800418E0484603F0EAFE08B3761E0DF18D
:1011300023018B4544F4007408D2A9F130000BF868
:10114000010B200607D5AAF1010003E0200602D416
:101150000AF101008246A00502D51399681C0860B7
:10116000B96912986D1C88478146002ED1DC53E086
:10117000002E51DDB9F1650F02D0B9F1450F4BD109
:10118000A00549D5B9696D1C1298761E24F44074E7
:101190008847002E81460CDD2B2804D0B9F12D0F95
:1011A00007D144F48074B96912986D1C8847761E83
:1011B0008146E00501D52D2100E02B2108F8011B17
:1011C000CDF8008021E0761E0DF13901884544F408
:1011D00000740CD2A9F1300010F0FF0088F8000074
:1011E00002D10099884509D908F1010806E0E00517
:1011F00001D51E4801E042F20F708246B96912988B
:101200006D1C8847814613980560002E04DD484612
:1012100003F075FE0028D6D1F96912988847FF209F
:1012200053468BF8000088F8000000200A900B90CD
:1012300004AA0CA90AA8FFF7ADFDA00502D46FF01F
:101240000100F8E614F0240F12D0E0071CD1386832
:10125000DDE90A12031D3B600068C0E9001213E0DB
:10126000A4630000966300005A620000F1D8FFFFFB
:101270000AA9684603F030FEE00705D13868009AF5
:10128000011D3960006802602846D4E610B50446A6
:10129000AFF300802046BDE81040FEF7D1BF00004C
:1012A0002DE9FF4F1F464FF03C0987B04FF0004239
:1012B000DDE9141001F10108DDF858A002EA405000
:1012C0000390002005908346054604460490B969C2
:1012D000461E08988847AAF1010A0290BAF1000F49
:1012E0003BDD02982E2815D0102100F016FA0028B8
:1012F0002EDB4FF0010B0599014317D0B9F1000F18
:101300000BDB4A46C11700F0F5F905430C43A9F180
:10131000040905E0012004900BE008B145F0010547
:1013200001200590049820B9361D02E0049800B110
:10133000361FB969089808F101088847BBF1000F0A
:10134000AAF1010A0290C9D00999C1F80080C5E745
:101350000298702808D0502806D0F9690898884764
:10136000BBF1000F14D04FE0002002900120BBF130
:10137000000F049009D0B969089808F1010888475E
:10138000AAF10109B9F1000F07DCF969089888474B
:101390006FF001000BB0BDE8F08F2B2804D02D2892
:1013A0000CD14FF0FF300490B969089808F101089A
:1013B0008847A9F10109B9F1000FE6DD411CE4D02D
:1013C0000A2100F0AAF90028DFDB029908F10108E0
:1013D00001EB810100EB41000290B9690898884750
:1013E0000A2100F09AF9099AA9F10109B9F1000F4F
:1013F000C2F8008001DD0028E7DAF969089888471B
:101400000499029800FB016655EA040004D004F038
:101410004041090002D006E0039898E0A40044EAA5
:101420009574AD00B61E04F00041080002D16D199C
:101430006441761E159810F0240F03D04FF00B096D
:101440005C4803E04FF028096FF07D008246564566
:1014500007DAAAEB06018944B9F1410F01DD4FF02B
:10146000410901200021A9F1010200F043F90246DF
:1014700028400B462140084301D0012100E0002113
:10148000501E029143F1FF3128402140084301D012
:10149000012000E000200299834651EA0B014FD061
:1014A000002108464FF00000039900F4400039B1D4
:1014B00000EB80004FF4400100EBD07001EA6000C7
:1014C0008015012802DD4FF0FF3000E013D0401CF2
:1014D00036D0029860B3BBF1000F0CD14A46012010
:1014E000002100F007F928402140084301D00120E5
:1014F00000E00020E0B101204A46002100F0FAF8A7
:10150000034640190A4661412D1A8C4111D3B9F1A5
:10151000400F09DD159810F0240F02D0AAF134060F
:1015200003E0AAF1170600E0761C00254FF0004406
:1015300006E05B1E42F1FF3220EA030521EA0204C5
:10154000CAF10100B04206DA1B4903980843019032
:10155000002000900EE0039AC4F3D321E80A0A4366
:10156000164940EA44500A433146CDE90002684634
:1015700003F0BBFC159810F0240F0BD01598C00792
:1015800015D13868DDE90012031D3B600068C0E931
:1015900000120CE002A8694603F09EFC1598C007F3
:1015A00005D13868029A011D396000680260404622
:1015B000F0E6000002FCFFFF0000F07F0000F03FBB
:1015C0002DE9FF4F92461D4685B04FF00041DDE901
:1015D000124BDDE914727F1E01EA4B50414940F085
:1015E000FF4940EA0108002122F020004928049127
:1015F00002D04E2828D04CE03BA0012607C88DE839
:101600000700A9690698641C88477F1E014606D416
:101610001DF8060018B121F0200181420BD0E969C4
:1016200006988847032E34D0082E32D06FF0010080
:1016300009B0BDE8F08F761C032E01D0082EE0D152
:10164000601CCAF80000DCE7A9690698641C88479A
:101650007F1E2AD420F02000412826D1A9690698AF
:10166000641C88477F1E20D420F020004E281CD107
:10167000A9690698641C88477F1E48F4002849F42D
:101680008009CAF8004001D4282806D0E9690698E4
:1016900088475FEACB7012D022E0A9690698641CE3
:1016A00088477F1E01D4002803DAE9690698884735
:1016B000BCE72928F1D1641CCAF80040E9E71BF017
:1016C000240F07D028680499031D2B600068C0E927
:1016D000001805E02868021D2A600068C0F8009024
:1016E0002046A5E70000F07F494E46494E4954592F
:1016F00000000000B2F120030AD5C2F1200301FA74
:1017000002F120FA03F300FA02F041EA0301704704
:1017100000FA03F14FF0000070473A2800D2303849
:1017200020F02002412A01D3A2F13700884201D3E0
:101730004FF0FF3070475FEA400C08BF91F0000F98
:101740004FEA8C234FEAC12243EA51514FEA1C5021
:1017500018BF00F5F0404FEA300018BF41F00041DB
:101760005FEA6C5C00F02980BCF1FF3F08BF40F0ED
:1017700080407047130C06BF12044FF0100C4FF05E
:10178000000C130E04BF12020CF1080C130F04BF5F
:1017900012010CF1040C930F04BF92000CF1020C27
:1017A000D30F04BF52000CF1010C11464FF00002A0
:1017B000A0F11F00A0EB0C00704711F0004F08BF14
:1017C000704731F000413FF4D5AF0B0C06BF090460
:1017D0004FF0100C4FF0000C0B0E04BF09020CF17F
:1017E000080C0B0F04BF09010CF1040C8B0F04BF94
:1017F00089000CF1020CCB0F04BF49000CF1010C65
:10180000CCF12003A0EB0C0022FA03F302FA0CF255
:1018100041EA030100F10100704720F07F4C80EAAB
:10182000030023F07F47ACEB070303F57C5300F084
:10183000004003F1FF032DE980494FEA154B09B43D
:101840004FEA144325EA0B4E24EA03480FF204261C
:1018500006EB132749083E785FEA320203FB06676E
:10186000C7F5000707FB06F64FEA54374FEAD6469E
:1018700006F1020607FB066CCCF1005C4FEA1C4740
:101880002CEA074C07FB06F40CFB06F504EB1546A7
:101890004FEA961634BF00204FF000404FEAD13790
:1018A00006FB07FC4FEA1C4C0CFB0BF7D21B03FB9F
:1018B0000CF761EB07010CFB0EF7B0EB074072EB86
:1018C00017420CFB08F734BFA2EB0742B2EB07420A
:1018D00061EB17414FEA0C444FEA910706FB07FC06
:1018E0004FEA1C4C0CFB0BF7B0EBC74072EB5732C6
:1018F00003FB0CF734BFA2EBC742B2EBC74261EB6C
:1019000057310CFB0EF7B0EBC70072EB57720CFBB4
:1019100008F734BFA2EBC702B2EBC70261EB577105
:10192000039F4FEA816141EA921104EBCC044FEA34
:10193000D1374FEA826206FB07FC42EA90124FEA77
:1019400080604FEA1C4C0CFB0BF7D21B03FB0CF71F
:1019500061EB07010CFB0EF7B0EB074072EB17428F
:101960000CFB08F734BFA2EB0742B2EB074261EB76
:1019700017414FEA8C554FEA910704EB9C2406FB74
:1019800007FC4FEA1C4C0CFB0BF7B0EBC74072EBAB
:10199000573203FB0CF734BFA2EBC742B2EBC7428E
:1019A00061EB57310CFB0EF7B0EBC70072EB5772CF
:1019B0000CFB08F734BFA2EBC702B2EBC70261EB26
:1019C000577115EB4C254FEA816141EA92114FEABC
:1019D00082624FEAD13742EA901206FB07FC44F1DB
:1019E00000044FEA80604FEA1C4C0CFB0BF7D21B43
:1019F00003FB0CF761EB07010CFB0EF7B0EB0740A4
:101A000072EB17420CFB08F734BFA2EB0742B2EBB4
:101A1000074261EB174115EB1C154FEA813141EA92
:101A200092414FEA823242EA90424FEA80304FEAD6
:101A30000C7644F1000448EA03434EEA0B484FF0A9
:101A4000000EB2EB080C71EB030724BF6246394667
:101A50004EEB0E0E4FF0000B0018524149414BEB7C
:101A60000B0BB2EB080C71EB03077BF1000B24BFEF
:101A7000624639464EEB0E0E4FF0000B00185241F5
:101A800049414BEB0B0BB2EB080C71EB03077BF1FD
:101A9000000B24BF624639464EEB0E0E51EA020798
:101AA00018BF46F0010616EB0E7655F1000254F110
:101AB000000103D5BDE88901BDE80088BDE88901C2
:101AC000BDE80048B619524141EB0101A3F1010301
:101AD000704780807F7E7D7C7B7A7978777676759B
:101AE0007473727171706F6E6E6D6C6C6B6A6A6913
:101AF0006868676666656464636362616160605FAD
:101B00005F5E5E5D5D5C5C5B5B5A5A595958585725
:101B1000575656555555545453535252525151508D
:101B200050504F4F4F4E4E4D4D4D4C4C4C4B4B4BE0
:101B30004A4A4A4949494848484747474746464626
:101B40004545454444444443434343424242424161
:101B50004141000046EA0646A3F570534FEA164697
:101B600046EA42564FEAD22242EA415210B54FEAC3
:101B7000D121A3F1010300F02FF820F0004000F183
:101B8000020C00F0004701EB00501146BCF5006F5D
:101B900040EA070000D210BDBAF1000F0AD01CB510
:101BA00003B44FF004004FF004014FF000000FBCED
:101BB000BDE810404FF00001BBF1010FB9BF044870
:101BC0004FF0FF310348002140EA070010BD00BF7D
:101BD000FFFFEF7F0000F07F002B9C4630D47700A2
:101BE0002BD01CB54FEA370703B44FF010004FF06D
:101BF0001001BAF1000F06D0BCF1000FDCBF40F0BD
:101C0000080040F008014FF000000FBCBDE8104094
:101C10000BF1010BBBF1010F08BF5FEA170722BFF1
:101C200012F1010211F101014FF0004143F10003F3
:101C300000F0004043EA00007047F9D35708D0E7AE
:101C400046EA064613F1400F4FEA16461FDD13F130
:101C5000200FDFBF16430A46002120335B42BED06F
:101C6000C3F1200746EA064602FA07F74FEA16468E
:101C700046EA0706C3F1200722FA03F201FA07F742
:101C800021FA03F14FF0000342EA0702A7E746EA10
:101C9000020646EA06464FEA164646EA0106BCBF79
:101CA00046EA0646360C4FF000034FF000024FF0B4
:101CB000000194E72DE9804C9A46934670B491E870
:101CC000380007C831EA400C48BF34EA430C03D55A
:101CD000FFF7A3FDFFF780FFF0BCBDE8008C2DE906
:101CE000804C9A46934670B491E8380007C831EAB0
:101CF000400C48BF34EA430C03D5FFF78EFDFFF7D5
:101D000029FFF0BCBDE8008C2DE9804C9A46934633
:101D100070B491E8380007C810F0804F08BF13F086
:101D2000804F03D100F01AF8FFF756FFF0BCBDE872
:101D3000008C2DE9804C9A46934670B491E83800A7
:101D400007C810F0804F08BF13F0804F03D100F098
:101D500005F8FFF7FFFEF0BCBDE8008C20F07F47E0
:101D600080EA030023F07F4C07EB0C03A3F57C53C0
:101D700000F00040A3F1FE0392F0000F00F0B380EA
:101D800095F0000F00F077802DE901494FEA1140EE
:101D90004FEA144621EA004800FB06FC24EA064705
:101DA00008FB06F607FB08F800FB07F718EB0648E8
:101DB0004CEB164C4FEA124B18EB07484FEA15460E
:101DC0004CEB174022EA0B4E0BFB06FC25EA0647BC
:101DD0000EFB06F607FB0EFE0BFB07F71EEB064E8F
:101DE0004CEB164C4FF000061EEB074E4CEB174B1E
:101DF00018EB0B0840F1000018EB0E0B58EB000835
:101E000040F100008F1A4FF000013CBFC943661B30
:101E100014BFB5EB040C00213CBFC943F61B4FEACD
:101E200017444EEA8E0E27EA04454FEA1C4704FB8E
:101E300007622CEA074C05FB07F70CFB05F604FBD1
:101E40000CFC16EB074642EB174216EB0C4642EB36
:101E50001C421BEB060658EB0202414146EA9E0675
:101E600001D5BDE80189B619524141EB0101A3F149
:101E70000103BDE801894FEA14454FEA114724EAFE
:101E8000054621EA074C05FB07F406FB07F70CFBA8
:101E900006F105FB0CFC11EB074144EB17444FEA3C
:101EA000124711EB0C4144EB1C4422EA074C05FBA2
:101EB00007F206FB07F70CFB06F605FB0CFC16EB1E
:101EC000074642EB174216EB0C4642EB1C456A18DC
:101ED00054F1000148BF7047B619524141EB01016E
:101EE000A3F10103704795F0000F37D04FEA11427C
:101EF0004FEA144721EA024624EA074C02FB07F1A5
:101F000006FB07F70CFB06F402FB0CFC14EB074482
:101F100041EB17414FEA154714EB0C4441EB1C41D0
:101F200025EA074C02FB07F506FB07F70CFB06F654
:101F300002FB0CFC16EB074645EB174516EB0C466F
:101F400045EB1C42121951F1000148BF7047B61908
:101F5000524141EB0101A3F1010370474FEA1445DF
:101F60004FEA114724EA054621EA074C05FB07F131
:101F700006FB07F70CFB06F24FF0000605FB0CFC16
:101F800012EB074241EB174112EB0C4251EB1C41A3
:101F900048BF7047921841EB0101A3F1010370475C
:101FA000FEE770474FF4006000F0FCB90E4810B532
:101FB000026886B0002142F01002026000680B4CFB
:101FC00000F0100005902020CDE9000101200290D2
:101FD0006946204600F0F2F940210091694620460A
:101FE00000F0ECF906B010BD30380240001002409D
:101FF00090F83510022903D08021416501207047F7
:10200000052180F835100068016821F001010160A8
:10201000002070472DE9F04FB0F5006F77D1CA4B23
:10202000D3F82C22C949CA4E4FF00109002052B9F9
:10203000F27842B93071D1F80822012A01D186F82C
:10204000049086F80390D3F82C22012A5FD1F2780D
:10205000012A5CD1D1F808728B46BD49B1EE014A24
:102060008C79BC490D78BC490B78BC490A78BC49CD
:102070000978DFEDBC3ADFF8F0E2B1EE040ADFEDFB
:10208000BB0A9FEDBB1AF7EE001AB2EE042AEFBBB3
:102090003779012F3AD1AE4FDFF8D8A23F787F1EB3
:1020A0007FB2062C78D2DFE804F0030E1319477EC6
:1020B0003770012D01D1012F03D0002F6CDA5F1E84
:1020C0000AE0307068E03770002F65DA571E03E0D1
:1020D0003770002F60DA4F1E37705DE0A64FD7EDE6
:1020E000002A9FEDA63A72EE832A12EE90CAC7ED3F
:1020F000002AD44501DD87ED000AD7ED002A62EE03
:10210000A02A22EE843AC3EE012A01E046E0F2E082
:1021100081EEA23AF0EE402ADFF864C243EE232AB1
:1021200082EE823AFCEEC32A12EE907ABFB2ACF88D
:102130000070DFF850C228E0DFF84C82D8ED002AAA
:102140009FED8E3A72EE832A12EE907AC8ED002A45
:10215000574501DD88ED000AD8ED002A22EEA03AAD
:10216000C3EE012A81EEA23ADFED884AF0EE402A62
:10217000DFF81CC243EE242A82EE823AFCEEC32A28
:1021800012EE907ABFB2AEF80070DCF800807F1ECD
:10219000C8F82C70CCF80C7086F80790DBF8087241
:1021A000012F2CD0A6E0DFF8EC81D8ED002A9FEDBE
:1021B000733A72EE832A12EE907AC8ED002A5745E0
:1021C00001DD88ED000AD8ED002A22EEA03AC3EE28
:1021D000012A81EEA23ADFED6D4AF0EE402ADFF8E7
:1021E000B8C143EE242A82EE823AFCEEC32A12EEF4
:1021F000907ABFB2ACF80070DFF8A0C1C5E73779BC
:10220000EFBB674F062C73D2DFE804F003121921ED
:1022100049773178491C49B23170012D03D1012928
:1022200001D10221317096F9001099420DDA5FE078
:102230003178491C49B23170914206DA58E032785F
:10224000521C52B232708A4252DB307050E04A491E
:10225000D1ED002A9FED493A72EEC32A12EE902A80
:10226000C1ED002ABA4201DA81ED003AD1ED002A2F
:1022700062EEA00A60EE840AC0EE812A00E039E036
:10228000C1EEA20A3E4A00EEA30AC0EE020ABCEE6C
:10229000E00A10EE101A89B211803A4A24E03A4955
:1022A0009FED363AD1ED002A72EEC32A12EE902A43
:1022B000C1ED002ABA4201DA81ED003AD1ED002ADF
:1022C000334A62EEA02AC2EE810A81EEA01ADFED47
:1022D0002F0A01EE200AC0EE020ABCEEE00A10EE60
:1022E000101A89B2AEF800101368491ED962D16085
:1022F00086F80790F070BDE8F08F26499FED1F3AF1
:10230000D1ED002A72EEC32A12EE902AC1ED002A06
:10231000BA4201DA81ED003AD1ED002A1E4A62EE9E
:10232000A02AC2EE810A81EEA01ADFED180A01EEA2
:10233000200AC0EE020ABCEEE00A10EE101A89B2C2
:102340001180164AD0E700000000434200004242DC
:102350001800002020000020890000208A000020B2
:102360008B0000208096184B8E00002000401C46F9
:10237000000070420000A04094000020CDCCCC3D75
:102380008C000020A0060020980000200024744942
:10239000E00600209C000020900000202007002084
:1023A000CDCCCC3D044910B50A68024202D0086089
:1023B000FFF730FE10BD0000143C01402DE9F84F3E
:1023C000DFF88C91002209F1040A0AF1040B4FF0A6
:1023D0000F080BF1040E01260B6896403340B34200
:1023E00071D14C68022C01D0122C11D1D40800EB11
:1023F00084073D6A5407E40E08FA04FC25EA0C053C
:10240000D1F810C00CFA04FC4CEA050CC7F820C047
:1024100007685400032591F804C0A5400CF0030C94
:10242000AF430CFA04FC4CEA070CC0F800C04F683C
:10243000012F05D0022F03D0112F01D0122F11D15F
:102440008768D1F80CC0AF430CFA04FC4CEA070CC7
:10245000C0F808C04768B7430E79C6F30016964027
:102460003E434660C668AE438D68A5403543C560AF
:102470004C68E40065D5374C256845F480452560F7
:10248000246822F0030504F480440094324C2E1991
:10249000D6F808789407250F08FA05F4A7432F4CBF
:1024A000A04201D1002424E02D4CA04201D10124FE
:1024B0001FE02C4CA04201D102241AE02A4CA04279
:1024C00002D1032415E03CE0284CA04201D10424B1
:1024D0000FE0274CA04201D105240AE0254CA04280
:1024E00001D1062405E0244CA04201D1072400E0DC
:1024F0000824AC403C43C6F80848D9F800404D4693
:102500004E689C43F60300D51C432C60DAF800406B
:1025100055464E689C43B60300D51C432C60DBF83F
:1025200000405D464E689C43F60200D51C432C607B
:10253000DEF8004075464E689C43B60200D51C4349
:102540002C60521C102AFFF446AFBDE8F88F000043
:10255000003C01404438024000300140000002408D
:102560000004024000080240000C0240001002403B
:102570000014024000180240001C02400AB18161B0
:1025800070470904FBE7000001480068000C704731
:10259000002004E00148806870470000040000202B
:1025A000024881680278114481607047040000206D
:1025B000094810B5016841F400710160016841F4F7
:1025C00080610160052000F057F80F2000F006F848
:1025D00000F024F8002010BD003C024070B50D4D05
:1025E00004464FF47A712878B1FBF0F00A49096883
:1025F000B1FBF0F000F070FC48B9102C07D20022BB
:102600002146501E00F018F800206C6070BD0120BB
:1026100070BD00000400002000000020704700286A
:1026200009DB00F01F02012191404009800000F108
:10263000E020C0F800117047F0B40E4B1B68C3F3E4
:102640000223C3F10704042C00D904241D1D072D07
:1026500001D2002300E0DB1E012606FA04F56D1E00
:102660000D409D409E40761E164045EA0601F0BC96
:1026700002F002BB0CED00E0064A00F00701106812
:102680004FF6FF03184040EA012003490843106059
:10269000704700000CED00E00000FA052DE9F0475E
:1026A0000D46040065D0DFF81491D9F80000EFB2B0
:1026B00000F00F00A84207D289F80070D9F8000096
:1026C00000F00F00A84254D120683D4E810712D57A
:1026D000400703D5306840F4E050306020780007B0
:1026E00003D5306840F4604030603068A16820F065
:1026F000F000084330602078C0072DD03049606872
:102700000839012812D0022813D0032811D00968F3
:10271000890700292DDA316821F003010143316076
:10272000FFF738FF804641F2883A0EE009688903D6
:10273000EFE709688901ECE7FFF72CFFA0EB080140
:10274000514502D90320BDE8F0873068616800F088
:102750000C00B0EB810FEFD1D9F80010484601F022
:102760000F01A94207D90770006800F00F00A842C6
:1027700001D00120E7E72078400705D53068E168FF
:1027800020F4E050084330602078000706D5306818
:10279000216920F4604040EAC100306000F036F862
:1027A0003168084AC1F30311515CC840064908600A
:1027B0000F20FFF713FF0020C5E70000003C024098
:1027C00008380240786600080000002004480549E7
:1027D00000680968044AC1F38221515CC84070470F
:1027E00000000020083802408866000804480549B7
:1027F00000680968044AC1F34231515CC84070471F
:10280000000000200838024088660008154810B50E
:10281000006810F00C01144813D0431004290FD0A5
:1028200008290ED10F4C241F216801F03F022168B6
:10283000490207D52068C0F38810A0FB030106E019
:10284000184610BD2168C1F38811A1FB00010023C7
:10285000FDF71DFD2168C1F30141491C4900B0FB92
:10286000F1F010BD083802400024F4002DE9F84FC3
:10287000040073D02078BD4DC00748D0BB48083055
:102880000168C1F38101012908D00068C0F381000B
:1028900002280AD1281D0068400206D52868800356
:1028A00035D560680028E4D031E06068B0F5803F3D
:1028B00010D0B0F5A02F286810D020F48030286008
:1028C000286820F4802028606068A0B1FFF762FECD
:1028D00006460CE0286840F48030F4E740F480209D
:1028E0002860F7E7FFF756FE801B642872D8286837
:1028F0008003F7D50BE0FFF74DFE064604E0FFF737
:1029000049FE801B6428F1D828688003F7D420781A
:10291000DFF85C9280074FF0000A3ED593480830FC
:10292000016811F00C0F09D00068C0F38100022883
:102930000BD18E48001D0068400206D4286880072D
:1029400015D5E068012809D111E0E068B8B101208F
:10295000C9F80000FFF71EFE064605E003E1FFF799
:1029600019FE801B0228C1D828688007F7D528687F
:10297000216920F0F80040EAC10028600DE0C9F8A4
:1029800000A0FFF707FE064604E0FFF703FE801BEA
:1029900002281FD828688007F7D42078000722D59E
:1029A000724F74496069743770B101200860FFF795
:1029B000F1FD064604E0FFF7EDFD801B022809D873
:1029C00038688007F7D50EE0C1F800A0FFF7E2FDF8
:1029D000064605E081E0FFF7DDFD801B02287CD87C
:1029E00038688007F7D42078400769D5DFF87CB1D4
:1029F0004FF000080BF1400BDBF80000C0000CD4D6
:102A0000DBF8001041F08051CBF80010DBF800003B
:102A10004FF0010800F080500090574F3868C00513
:102A20000FD4386840F480703860FFF7B3FD064675
:102A300004E0FFF7AFFD801B02284ED83868C005C0
:102A4000F7D54A4FA068703701280FD0052838689D
:102A500010D020F001003860386820F004003860A1
:102A6000A068B0B1FFF796FD06460EE0386840F06A
:102A70000100F4E740F004003860F7E7FFF78AFD53
:102A8000811B41F28830814265D838688007F5D5CE
:102A90000DE0FFF77FFD064606E0FFF77BFD811B9B
:102AA00041F28830814256D838688007F5D4B8F1B1
:102AB000000F05D0DBF8001021F08051CBF800109A
:102AC000A069C8B3294908310968C1F38101022905
:102AD00049D00228504607D000E03CE0C9F8600029
:102AE000FFF758FD044639E04F46C9F86000FFF78C
:102AF00051FD064604E0FFF74DFD801B02282AD851
:102B000028688001F7D4D4E907010843A16A1B4A69
:102B1000490802EB0141626A41EA8211084394F8D4
:102B20002C1040EA01611148001D01600120386647
:102B3000FFF730FD044605E013E0FFF72BFD001B17
:102B4000022808D828688001F7D50AE0FFF722FD9F
:102B5000001B022802D90320BDE8F88F28688001F5
:102B6000F4D40020F8E70120F6E700000038024026
:102B700000004742800E4742007000400000FFFF07
:102B800070B5040004D094F85100002510B106E09F
:102B9000012070BD84F85050204600F037F8022024
:102BA00084F851002068016821F040010160D4E9F7
:102BB00001010843D4E90312114308436169084342
:102BC000218B01F400710843E1690843216A08433D
:102BD000A16A084321680860A069042101EA104045
:102BE000616A084321684860A06AB0F5005F02D1BD
:102BF0002168E06A08612068C16921F40061C1614F
:102C00006565012084F85100002070BD114800B5B1
:102C1000016887B041F002010160006800F0020025
:102C200005900C481430016841F48051016000683F
:102C3000012100F480500590382000900220CDE959
:102C4000010103900520049069460348FFF7B6FB95
:102C500007B000BD30380240000402402DE9F84FB3
:102C6000044690F85000012500270A9E9846924697
:102C70008B4601280FD0012084F85000FFF78AFC12
:102C800094F8511081466268404601290CD0B2F593
:102C9000827F07D102E00220BDE8F88FA2680AB95E
:102CA000042901D0022703E1BBF1000F3CD0BAF1A7
:102CB000000F39D0B8F1000F36D094F85110042924
:102CC00002D0052184F8511000216165C4F838A0B4
:102CD000A4F83E80A4F83C80C4F830B0A4F8368054
:102CE000A4F8348021646164A16A4FF4005841451E
:102CF00009D121680A6822F400520A6021680A6832
:102D000042F400520A6021680A68520603D40A6835
:102D100042F040020A60E168B1F5006F616805D0D9
:102D2000F1B301284DD08DE00127C1E009B10128A0
:102D300040D1206B21680088C860206B801C206314
:102D4000E08E401EE08635E020688168890717D54F
:102D5000E18EA9B1012D13D1216B0988C160206BCF
:102D6000801C2063E08E401EE086E08E002538B98E
:102D7000A06A404504D12068016841F48051016097
:102D800020688168C9070DD0E18F59B1C068A16B77
:102D90000880A06B801CA063E08F401EE08700E0ED
:102DA0000FE00125FFF7F6FBA0EB0900B04201D3CD
:102DB000701C5DD1E08E0028C6D1E08F0028C3D101
:102DC00046E0206B216800780873206B401C20636C
:102DD000E08E401EE08635E020688168890717D5BF
:102DE000E18EA9B1012D13D1216B09780173206BFC
:102DF000401C2063E08E401EE086E08E002538B93E
:102E0000A06A404504D12068016841F48051016006
:102E100020688168C9070BD0E18F49B1C068A16BF8
:102E20000870A06B401CA063E08F401EE087012566
:102E3000FFF7B0FBA0EB0900B04202D3701C01D039
:102E400016E0AEB1E08E0028C6D1E08F0028C3D1D5
:102E5000A06A404510D10122334611462046CDF8E4
:102E6000009001F0CFF928B1606D40F0020060657C
:102E700003271DE02068C06820688168C90607D55F
:102E8000616D41F0020161654FF6EF7181600127CC
:102E90004A463146204601F089F918B10127202021
:102EA000606505E0A06818B92068C1688068009076
:102EB000012084F85100002084F850003846EBE6E9
:102EC0004FF0E0210428086903D020F004000861D5
:102ED000704740F00400FAE710B5401EB0F1807F63
:102EE00001D3012010BD4FF0E02460610F21601775
:102EF00001F0C2FE0020A06107202061002010BD6B
:102F00007047704710B5040003D094F83D0010B12D
:102F100007E0012010BD002084F83C00204600F0AE
:102F20000DF8022084F83D00211D206801F08EFA82
:102F3000012084F83D00002010BD000030B504469B
:102F400001683E48002287B0814234D13C4908687C
:102F500040F040000860086800F0400005900868F4
:102F600040F004000860086800F00400059008685C
:102F700040F010000860086800F01000059030482C
:102F80001030016841F0200101600068694600F0DE
:102F9000200005904FF40050CDE90002012002907E
:102FA0002848FFF70BFA012202213720FFF744FBE4
:102FB0003720FFF734FB224D23492068143588421F
:102FC0000FD1286840F4803028602868002200F47F
:102FD0008030009001211820FFF72EFB1820FFF70A
:102FE0001EFB1A49206888420FD1286840F400303F
:102FF00028602868012200F4003000901146192052
:10300000FFF71AFB1920FFF70AFB114920688842D5
:1030100012D1286840F4802028602868022200F439
:103020008020009001211A20FFF706FB07B01A202C
:10303000BDE83040FFF7F3BA07B030BD00140040E0
:103040003038024000180240004001400044014076
:10305000004801400168CA6842F00102CA60006885
:10306000816801F00701062903D0016841F00101E0
:103070000160002070470168CA6822F00102CA603E
:103080000068016A41F21112114207D1016A9210DF
:10309000114203D1016821F0010101600020704755
:1030A000704770B50446006801694FF00005C943D8
:1030B000890715D4C168C943890711D4E91E016184
:1030C00001202077206880698007204602D0FFF722
:1030D000E7FF04E000F098F8204600F096F8257726
:1030E00020680169C943490717D4C168C943490722
:1030F00013D46FF0040101610220207720688069F9
:1031000010F4407F204602D0FFF7CAFF04E000F031
:103110007BF8204600F079F8257720680169C943DB
:10312000090716D4C168C943090712D46FF0080112
:103130000161042020772068C0698007204602D002
:10314000FFF7AEFF04E000F05FF8204600F05DF806
:10315000257720680169C943C90617D4C168C943E6
:10316000C90613D46FF01001016108202077206890
:10317000C06910F4407F204602D0FFF791FF04E0C1
:1031800000F042F8204600F040F8257720680169F9
:10319000C943C90708D1C168C943C90704D1891EF9
:1031A0000161204600F032F820680169C943090630
:1031B00009D4C168C943090605D46FF080010161D3
:1031C0002046FFF79DFE20680169C943490609D4DE
:1031D000C168C943490605D46FF04001016120462A
:1031E00000F09AF920680169C94389060BD4C168C7
:1031F000C943890607D46FF0200101612046BDE86C
:103200007040FFF77EBE70BD704770472DE9F05FDC
:10321000A849A94E8146884208D1A848D0F834026E
:103220000024A74F012510B17C70BD701CE1787897
:10323000401CC0B278700828F8D3B8780028F5D0C0
:103240009F48BC7097F806C002239E4A90F9000080
:103250009D49DFF878A2DFF878B2DFF878E2BCF1B8
:10326000060F7CD2DFE80CF00392ECF5F5F50528AB
:10327000F7D2DFE800F00345EE477B00964803787D
:1032800003B3C6F89052C2F88052C6F88C520C7044
:103290008AF800408BF80040047090480178F1B142
:1032A0008F498EF800400C708E490C7004708E4867
:1032B000FFF7E1FE8D48FFF7DEFE8D48FFF7DBFEEE
:1032C000BC71C7E0C6F89042C2F88042C6F88C4292
:1032D0000D708AF800508BF800500570DDE78049CA
:1032E0008EF800500D707F490D7005707E48FFF715
:1032F000B1FE7E48FFF7AEFE7D48FFF7ABFEDFE78D
:10330000BD71A7E07B48006803F0B8F841EC100BF2
:1033100079A153EC102B7A48FDF730F87948006812
:1033200003F0ACF841EC100B73A153EC102B764872
:10333000FDF724F87548006803F0A0F841EC100B85
:103340006DA153EC102B7248FDF718F804220021F0
:103350006B4801F0C5FB042211466B4800E025E0F4
:1033600001F0BEFB0422082169480CE00422002180
:10337000684801F0B5FB04221146664801F0B0FB35
:1033800004220821634801F0ABFB6BE0072869D2F7
:10339000DFE800F004051221303E4B0090E708788A
:1033A00028B10020087020B1C6F890425AE00120F0
:1033B000F8E7C6F8905255E09AF8000030B10020C6
:1033C0008AF8000020B1C2F880424BE00120F7E704
:1033D000C2F8805246E09BF8000030B100208BF824
:1033E000000020B1C6F88C423CE00120F7E7C6F8A7
:1033F0008C5237E09EF8000040B100208EF80000AB
:10340000002839480CD0FFF725FE2BE00120F5E716
:103410003349087838B10020087000283348F2D1C9
:10342000FFF729FE1EE00120F6E72E49087828B1B3
:103430000020087000282E48F2D0E4E70120F8E7C9
:103440000028ABD0012807D0022807D0032809D1D3
:1034500006E026E03C7005E0032002E0042000E0E6
:103460000520B8717D71FD711F49894505D1D6F8D8
:103470008802C0B10020C6F888021C49894505D1E0
:10348000D6F8940288B10020C6F8940218498945FC
:1034900005D1D6F8840250B10020C6F88402BDE8F8
:1034A000F09FBB71D6E70120E5E70120ECE70120A2
:1034B000F3E70000BC01002000004042000043424E
:1034C0001800002000804042240000202500002039
:1034D000260000202100002088000020200000207D
:1034E0002200002023000020A0060020E00600208B
:1034F0002007002094000020252E316600000000E7
:10350000A000002098000020A40000209C000020C3
:10351000A8000020AC0000207047704710F8391F49
:10352000407808437047000070B502680446106890
:10353000D168536910F00F0F50D003F0010501F46A
:10354000907635435DD0C20705D0CA0503D5E26B3E
:1035500042F00102E263420705D5DA0703D0E26BCD
:1035600042F00202E263820705D5DA0703D0E26B7C
:1035700042F00402E263020705D5DA0703D0E26BEA
:1035800042F00802E263E26B002A33D0800604D5E1
:10359000880602D5204600F0D3FF20684069E16B21
:1035A000C0F38010090700D428B3204600F0BAFF0A
:1035B0002068416949061AD5416921F040014161FD
:1035C000606BA0B11B490165606BFEF711FD00281F
:1035D00010D0606B016DBDE870400847830610D5C0
:1035E0008B060ED52046BDE8704000F0A9BF2046EE
:1035F000FFF793FF70BD2046FFF78FFF0020E063C9
:1036000070BD030606D50B0604D52046BDE8704004
:1036100001F038B94006F3D54806F1D5D168204607
:1036200021F04001D160202184F8391000F0CAF85F
:1036300070BD00001545000870B5040004D094F872
:103640003900002510B106E0012070BD84F8385023
:10365000204600F023F8242084F839002068C1684F
:1036600021F40051C160204600F0B6FF20680169D6
:1036700021F4904101612068416921F02A014161F2
:103680002068C16841F40051C160E563202084F8DE
:10369000390084F83A00002070BD000010B50068C1
:1036A0001A4986B088422FD11948016841F00101BA
:1036B0000160006800F001000590154814300168B1
:1036C00041F0100101600068012100F01000059038
:1036D0004FF4007000900220CDE901010390072013
:1036E0000C4C049069462046FEF768FE21150091B7
:1036F00069462046FEF762FE2520FEF790FF032272
:1037000011462520FEF798FF06B010BD00100140BD
:10371000303802400000024090F83A30202B22D18D
:10372000F9B1F2B190F83830012B1CD0816282855A
:10373000C2850021C163222280F83A2080F8381027
:103740000168CA6842F48072CA6001684A6942F03E
:1037500001024A610068C16841F02001C160002097
:1037600070470120704702207047000030B50068A4
:10377000114988420CD1114A5088010408D41146DD
:10378000440409784FF0000306D50A2901D053807C
:1037900030BD40F400400DE00D2909D0C0F30D0408
:1037A000074D401C80B229555080C728EFD830BD46
:1037B00040F48040508030BD0010014014000020D3
:1037C000B40000207047FEE730B5214887B00025DF
:1037D000016841F040010160016801F0400105917C
:1037E000016841F004010160016801F004010591E4
:1037F000016841F0100101600068012400F0100030
:1038000005904FF4006000901248CDE9010469462C
:103810001148FEF7D3FD0420CDE900056946029466
:103820000E48FEF7CBFD0220CDE9000469460C48A6
:10383000CDE90245FEF7C2FD002202212820FEF755
:10384000FBFE2820FEF7EBFE00F0ECFD07B030BDDC
:1038500030380240000031100018024000100240D1
:103860000008024010B5084B084A0949094801F010
:10387000E1FD084802F089F90021064802F095F9B7
:1038800005490120087010BDD95800081F5C0008C8
:10389000147000080C0600201F000020F0B51A4824
:1038A00087B00024016841F040010160016801F027
:1038B00040010591016841F0100101600068012597
:1038C00000F0100005904FF480400226CDE900057D
:1038D0000E4FCDE9024669463846FEF76FFD2803D4
:1038E000CDE90005CDE9024669463846FEF766FD9A
:1038F0000820CDE90005CDE9024669460448FEF7F7
:103900005DFD07B0F0BD00003038024000180240F5
:10391000001002402DE9FC5F4FF00009FE4801F065
:10392000EFFBFE49FC4801F039FDFB4801F04CFD7E
:10393000F94E96F88E0096F88F10B6F84480401A2B
:10394000401CC4B2F64890F90000052802D4001FBC
:1039500000F0FF09F348DFF8D0B30078062847D21B
:10396000DFE800F00347F1EFEEED002509F1050A6D
:103970003AE09BF800005F4610B1EB48283001E0C8
:10398000E948143050F82610E34801F0ABFCA8EBEE
:10399000000000EBD070C0F34F0001900121DE4821
:1039A00001F0F4FCDE4890F9000086420BD115FBD3
:1039B00004F243460021D848009401F0B0FB0021F6
:1039C000D54801F0E3FC387810B1D748283001E041
:1039D000D548143050F8263015FB04F2CE48019932
:1039E00001F04CFC6D1CEDB205EB09065645C0D349
:1039F000EDE1DFF834A309F1050000260AF13C0AE5
:103A0000019043E05AF82710C34801F06BFCA8EB83
:103A1000000000EBD070C0F34F050121BE4801F05B
:103A2000B5FCBF4890F9000087420BD116FB04F2A9
:103A300043460021B848009401F071FB0021B648CC
:103A400001F0A4FC072F1FD2DFE807F0040A263696
:103A5000465B69005AF8273016FB04F2294610E04D
:103A60005AF8273016FB04F2A5F11E0081B2174662
:103A7000A94801F003FC9BF804001AE03A462E35F1
:103A80003DE0A54801F0FAFB761CF6B2019806EB82
:103A900009078742B6D39AE15AF8273016FB04F299
:103AA000A5F11E0081B217469B4801F0E7FB9BF889
:103AB000050078B19DA3E1E75AF8273016FB04F220
:103AC000A5F11E0081B21746934801F0D7FB9BF881
:103AD0000600EEE797A3D1E75AF8273016FB04F269
:103AE000A5F11A0081B217468B4801F0C7FB9BF87D
:103AF000010021E091A300E091A33A463235A9B23A
:103B0000BFE75AF8273016FB04F7A5F11A0081B277
:103B10003A46814801F0B2FB9BF802000CE05AF8EB
:103B2000273016FB04F2A5F11A0081B217467A4835
:103B300001F0A4FB9BF803000028DDD0DAE7CFE01A
:103B400082E035E0FFE7784F0025583709F1040A95
:103B500029E057F82610704801F0C4FBA8EB0000DC
:103B600000EBD070C0F34F0B01216B4801F00EFC4D
:103B70006B4890F9000086420BD115FB04F24346D6
:103B800000216548009401F0CAFA0021624801F062
:103B9000FDFB57F8263015FB04F259465E4801F04C
:103BA0006DFB6D1CEDB205EB09065645D1D30EE158
:103BB000DFF87491DFF890A1002509F10809564853
:103BC00059F8251001F08EFBA8EB0007012152489F
:103BD00001F0DCFBDAF8000002F050FC41EC100BC5
:103BE0005AA153EC102B5B48FCF7C8FB36F8460F84
:103BF00059F825304008A0EB540082B20021464815
:103C000001F03CFB3088534B4008A0EB540082B2DB
:103C100007F10A0081B2404801F030FB4D493E48AF
:103C200001F060FB38440C3081B236F846094AA3F3
:103C30004008A0EB540082B2374801F01FFB6D1C16
:103C400015F0FF05BBD0C2E0DFF8DC90DFF810A173
:103C5000002509F10C09304859F8251001F042FB04
:103C6000A8EB000701212C4801F090FBDAF80000D6
:103C700002F004FC41EC100B34A153EC102B39483A
:103C8000FCF77CFB36F8460F59F825304008A0EBCE
:103C9000540082B20021204801F0F0FA3088314B04
:103CA0004008A0EB540082B207F10A0081B21A4822
:103CB00001F0E4FA2B49184801F014FB38440C30A9
:103CC00081B236F8460924A34008A0EB540082B222
:103CD000114801F0D3FA6D1C15F0FF05BBD076E05A
:103CE000DFF84490DFF880A0002509F110090A48A8
:103CF00059F8251001F0F6FAA8EB00070121064853
:103D000001F044FBDAF8000002F0B8FB41EC100BC4
:103D10000EA153EC102B29E00C0600209066000841
:103D2000180000201E00002020000020456E616267
:103D30006C65000044697361626C650052554E0009
:103D400053544F500000000094000020252E31668F
:103D500000000000A0000020722F6D696E000000BE
:103D600098000020A40000209C0000201C48FCF7C4
:103D700005FB36F8460F59F825304008A0EB5400F3
:103D800082B20021174801F079FA3088144B4008BC
:103D9000A0EB540082B207F10A0081B2114801F091
:103DA0006DFA0F490F4801F09DFA38440C3081B28A
:103DB00036F846094008A0EB540082B2AFF268031F
:103DC000084801F05BFA6D1C15F0FF058FD005481F
:103DD00001F0C5FA044900200870BDE8FC9F00000E
:103DE000A80000200C0600201F00002070B5144819
:103DF00086B00021026842F02002026000684FF4A1
:103E0000007500F0200005900120CDE90050CDE9BB
:103E100002010C4E69463046FEF7D0FA6C00694646
:103E200030460094FEF7CAFA012229463046FEF7D2
:103E3000A5FB002221463046FEF7A0FB06B070BD70
:103E40003038024000140240FEE700002DE9F04740
:103E5000494886B00026016841F00101016001680F
:103E600001F001010591016841F004010160016860
:103E700001F004010591016841F001010160016850
:103E800001F001010591016841F004010160016840
:103E900001F004010591016841F001010160016830
:103EA00001F001010591016841F002010160016822
:103EB00001F002010591016841F004010160006810
:103EC000042700F0040000970225059001240395C3
:103ED000DFF8A8A0CDE9014669465046FEF76EFA24
:103EE00000970395DFF89890CDE90146694648466A
:103EF000FEF764FA4FF01008CDF800800395CDE985
:103F0000014669465046FEF759FACDE90054CDE91D
:103F1000026569465046FEF751FA08270097039557
:103F2000CDE9014669464846FEF748FA00970395F1
:103F3000CDE9014669465046FEF740FA2020039538
:103F40008DE8510069465046FEF738FACDF80080FA
:103F50000395CDE9014669464846FEF72FFA0395D9
:103F60000094CDE9014669460648FEF727FA00F0BD
:103F700095F906B0BDE8F0873038024000000240F5
:103F800000080240000402407047704710B5042248
:103F90002DED028B0021554800F028FD53480422E6
:103FA0001146001D00F022FD50480422082108306F
:103FB00000F01CFD4EA14D48FCF7C4FA4B4CB7EE87
:103FC000008A143C00287DD0484800F0E1FE51EC06
:103FD000100B02F061F8A060444845A1001DFCF7F9
:103FE000B1FA00287CD04148001D00F0D1FE51EC10
:103FF000100B02F051F8E0603C483DA10830FCF79E
:10400000A1FAE8B33948083000F0C2FE51EC100BB9
:1040100002F042F8206194ED020ADFED360ADFED8E
:10402000372A20EE201AB1EE010A61EE001A9FED48
:10403000321A81EE810AC8EE001AB1EE040AB0EE1F
:10404000402A01EEA22AF2EE041AC2EE212ABCEEA8
:10405000E22A12EE100A81B2218094ED032A62EE68
:10406000202A82EE812AF0EE402A88EE023A9FED65
:10407000242A43EE022A82EEA13AFCEEC32A00E093
:1040800031E012EE900A1F4B491E82B26280D4EDDD
:10409000042A62EEA02AC2EE810A88EE201A01EEFE
:1040A000020AC0EE210ABCEEE00A10EE100A80B24D
:1040B000A0801C68E162D96003F14001521E0B68C8
:1040C000DA6201E009E00BE0CA604031401E0A6894
:1040D000D062C860BDEC028B10BD84ED028A7BE724
:1040E00084ED038A88E784ED048A94E7A000002029
:1040F000302E300000401C46000070428096184B65
:1041000000247449A006002010B5124C104802216A
:1041100020604FF4827060600020A060C4E9030159
:10412000012161614902A1613821C4E9071060627F
:10413000A0620720E0622046FEF722FD20680168A9
:1041400041F040010160BDE81040FF2000F004B8DC
:10415000003001406007002001B582B04FF47A7052
:104160000090012301AA02A90248FEF777FD9DF8FD
:1041700004000EBD600700200B4A10B511680B68E3
:1041800023F040030B6011680B684FF6C77423409F
:104190000B6011680B6803430B601068016841F005
:1041A0004001016010BD00006007002038B50446E2
:1041B0001248134D4FF47A730068B0FBF5F0584382
:1041C00000906068B0F5827F0DD10B46009200220E
:1041D0008021204600F016F870B1606D40F020009C
:1041E0006065032038BD009830B1401E0090206803
:1041F0008068C0430006F6D5002038BD00000020CE
:1042000000366E012DE9F0411D4617460E46044664
:10421000DDF8188008E0681C06D0FEF7BBF9A0EBBB
:104220000800A8420BD255B12068806836EA000029
:1042300030D00020B842EED10020BDE8F0812068E7
:10424000416821F0E00141606068B0F5827F0BD1E8
:10425000A068B0F5004F02D0B0F5806F04D120689F
:10426000016821F040010160A06AB0F5005F09D14A
:104270002068016821F4005101602068016841F460
:1042800000510160012084F85100002084F85000A2
:104290000320D2E70120CDE7704700002DE9F0416F
:1042A000164C1548002520605320C4E901054EF640
:1042B0005F20E0602046FEF725FE2068AE1E066106
:1042C00040340F4840F24737C4E9000741F26F78A5
:1042D000C4E902582046FEF715FE20680661403406
:1042E0000848C4E90007C4E902582046FEF70AFE60
:1042F00020680661BDE8F08100400140A006002072
:10430000004401400048014070B5214C92B00025A6
:10431000266846F080562660246804F08054119484
:104320001C4C266846F48046266024680DF1240C57
:1043300004F4804411940124009424040194022480
:1043400006948CE80D006605CDE907616846FEF726
:104350008DFA00B1FEE70CA90F2081E831004FF47F
:10436000A0500F904FF48050109005210CA8FEF73C
:1043700095F900B1FEE7FEF707F941F20101884225
:1043800004D10548016841F48071016012B070BD2C
:104390004038024000700040003C0240FEF700B987
:1043A0001048016841F4700101600F48016841F054
:1043B000010101600C4A00210832116002680B4BB8
:1043C0001A400260031D0A4A1A60026822F4802221
:1043D000026005480C3001600249580680390860C7
:1043E0007047000088ED00E000380240FFFFF6FE55
:1043F000103000240148FEF754BE0000A006002043
:104400000148FEF74EBE0000200700200148FEF7DD
:1044100048BE0000E00600200148FEF742BE000052
:10442000BC010020084810B50649016040F2473140
:104430004160C721C160FEF765FDBDE8104002483C
:10444000FEF708BE00140040BC010020F0B5026871
:10445000254D264E264FDFF89CC0274B4FF0804E4F
:10446000A84209D0704507D0B04205D0B84203D069
:10447000604501D0984203D122F070044A6822437B
:10448000A8421BD0704519D0B04217D0B84215D001
:10449000604513D0984211D0184CA0420ED0184C51
:1044A000A0420BD0174CA04208D0174CA04205D018
:1044B000164CA04202D0164CA04203D122F4407404
:1044C000CA6822434C6922F08002224302608A6853
:1044D000C2620A688262A84201D0984201D1096989
:1044E000016301214161F0BD000001400004004072
:1044F00000080040000C0040000401400040014062
:10450000004401400048014000180040001C0040E9
:104510000020004010B5806B0021C185C184FEF7EA
:10452000FCFF10BD0168CA6822F49072CA6001687D
:104530004A6922F001024A61202180F83A1070474E
:1045400010B590F83A10222901D0022010BD8168E0
:10455000B1F5805F11D00169002901681FD0496859
:1045600001F07F03816A4A1C82620B70C18D491E73
:104570000904090CC18518D02BE00269816A002A60
:104580000268526805D0D2B20A80816A491C8162F1
:10459000ECE7C2F308020A80816A891CF7E74A68DF
:1045A000816A4B1C83620A70E0E70168CA6822F0E6
:1045B0002002CA600168CA6822F48072CA60016879
:1045C0004A6922F001024A61202180F83A10FFF77F
:1045D000CDF8002010BD00002DE9F0410446006830
:1045E0000169E26821F4405111430161A168206929
:1045F000E26901436069104301432068C26849F2DF
:104600000C639A430A43C26020684169A26921F49D
:10461000407111434161E0696425B0F5004F974A4C
:10462000974920684FF032083FD0884201D090422D
:104630007CD1FEF7DBF800EBC00101EB00106168F4
:104640008900B0FBF1F6FEF7D1F800EBC00101EBF9
:10465000001061688900B0FBF1F0B0FBF5F06FF07D
:104660001801484306EB800108EB0110B0FBF5F0A0
:1046700000F0F006FEF7BAF800EBC00101EB001005
:1046800061688900B0FBF1F0B0FBF5F006EB0016B5
:10469000FEF7ACF800EBC00101EB00106168890087
:1046A000B0FBF1F7FEF7A2F8D2E0884201D09042C9
:1046B0003DD1FEF79BF800EBC00101EB00106168F3
:1046C0004900B0FBF1F0B0FBF5F00601FEF78EF803
:1046D00000EBC00101EB001061684900B0FBF1F78D
:1046E000FEF784F800EBC00101EB0010616849009F
:1046F000B0FBF1F0B0FBF5F06FF01801484307EBA9
:10470000800108EBC100B0FBF5F000F0F80006EB0B
:104710004006FEF76BF800EBC00101EB001061688A
:104720004900B0FBF1F7FEF761F83CE055E0FEF719
:104730004DF800EBC00101EB001061684900B0FBCF
:10474000F1F0B0FBF5F00601FEF740F800EBC00118
:1047500001EB001061684900B0FBF1F7FEF736F895
:1047600000EBC00101EB001061684900B0FBF1F003
:10477000B0FBF5F06FF01801484307EB800108EB40
:10478000C100B0FBF5F000F0F80006EB4006FEF7C4
:104790001DF800EBC00101EB001061684900B0FB9F
:1047A000F1F7FEF713F800EBC00101EB00106168B0
:1047B0004900B0FBF1F0B0FBF5F06FF01801484391
:1047C00007EB800108EBC100B0FBF5F000F007003B
:1047D000216830448860BDE8F081FDF7F7FF00EB09
:1047E000C00101EB001061688900B0FBF1F6FDF734
:1047F000EDFF00EBC00101EB001061688900B0FB28
:10480000F1F0B0FBF5F06FF01801484306EB8001C2
:1048100008EB0110B0FBF5F000F0F006FDF7D6FF55
:1048200000EBC00101EB001061688900B0FBF1F002
:10483000B0FBF5F006EB0016FDF7C8FF00EBC0017A
:1048400001EB001061688900B0FBF1F7FDF7BEFFD6
:1048500000EBC00101EB001061688900B0FBF1F0D2
:10486000B0FBF5F06FF01801484307EB800108EB4F
:104870000110B0FBF5F000F00F00A9E700140140B3
:104880000010014090F83910212901D00220704712
:104890008168B1F5805F016A0BD04A1C0262026830
:1048A00009785160C18C491E0904090CC1840ED0DD
:1048B00017E009880268C1F3080151600169002905
:1048C000016A02D0491C0162ECE7891CFBE7016820
:1048D000CA6822F08002CA600068C16841F04001E5
:1048E000C16000207047000010B50848FEF71CFEAC
:1048F0000648FEF713FE2028FAD101220449034896
:10490000FEF70AFF0028F8D110BD00007C0100204E
:1049100014000020FEE7000070B5040300F02EF93B
:1049200000F0D6F8104D0020C5F8B8022020FFF79F
:1049300013FC0E480088A0F56F41183902D1200EF3
:10494000FFF70AFCC4F30740FFF706FCC4F3072097
:10495000FFF702FCE0B2FFF7FFFB0120C5F8B80249
:10496000BDE8704000F0B4B800804042B0000020C4
:1049700070B51A4886B00025016841F00201016057
:104980000068012400F0020005904FF48040CDE95A
:1049900000040220CDE9024069461148FDF70EFDF2
:1049A000104EC6F8B842FFF7AFFB0020FFF7E4FB5C
:1049B00000F050F80C490880A0F56F4117390BD171
:1049C000032000F069F8C00706D1C6F8B852B72036
:1049D000FFF7C2FBC6F8B84206B070BD30380240DF
:1049E0000004024000804042B00000202DE9F04168
:1049F000164F0646002015460C46C7F8B80203209D
:104A0000FFF7AAFB12480088A0F56F41183902D1C0
:104A1000200EFFF7A1FBC4F30740FFF79DFBC4F393
:104A20000720FFF799FBE0B2FFF796FB002405E0B3
:104A3000FF20FFF791FB3055641CA4B2AC42F7D3C2
:104A40000120C7F8B802BDE8F081000000804042B4
:104A5000B000002070B50F4D0024C5F8B84290207A
:104A600005F52E75FFF778FB0020FFF775FB00209A
:104A7000FFF772FB0020FFF76FFBFF20FFF76CFBD7
:104A800044EA0024FF20FFF767FB2043012129604F
:104A900070BD00000080404210B5012803D00228FC
:104AA00003D0032803D0052002E0352000E01520C4
:104AB000064C0021C4F8B81204F52E74FFF74CFB25
:104AC000FF20FFF749FB0121216010BD008040421B
:104AD00010B50120FFF7E0FFC007FAD110BD0000BC
:104AE0002DE9F05FC1F30B06DFF88C800F0BC6F5E4
:104AF00080548A4681461546A24200D8144639039E
:104B00008B464FF480524046FFF770FF002006E0CE
:104B1000321818F80210FF2903D1401C80B2A042BD
:104B2000F6D3A04221D23846FFF7F6FE002006E079
:104B300019F800208319401C08F8032080B2A04215
:104B4000F6D359464FF48052404600F027F8A5426C
:104B50000FD0281BA144A244002685B24FF48054F4
:104B60007F1CA542CBD82C46C9E722465146484671
:104B7000EBE7BDE8F09F0000B807002010B5064C39
:104B80000020C4F8B802062004F52E74FFF7E4FAFA
:104B90000120206010BD0000008040422DE9F0415E
:104BA0000746C8B2C0F580740E461546A24200D82A
:104BB00014464FF4807822463146384600F00EF80D
:104BC000A54208D0281B2744264485B24446A54266
:104BD000F1D82C46EFE7BDE8F08100002DE9F04167
:104BE00015460C460646FFF7C9FF154F0020C7F8CB
:104BF000B8020220FFF7B0FA12480088A0F56F4112
:104C0000183902D1200EFFF7A7FAC4F30740FFF7C7
:104C1000A3FAC4F30720FFF79FFAE0B2FFF79CFA6C
:104C2000002404E0305DFFF797FA641CA4B2AC42A4
:104C3000F8D30120C7F8B802BDE8F041FFF748BF3C
:104C400000804042B000002003B401984100009869
:104C500050EAC12018BF04204A0D18BF40F00100DF
:104C600040F2FF72B2EB515F08BF40F00200012832
:104C700008BF052002B070470907090E002804DBB1
:104C800000F1E02080F80014704700F00F0000F100
:104C9000E02080F8141D704730B52DED048B81B0F5
:104CA000B0EE408AF0EE608A6A4651EC180B00F0D4
:104CB00063F900989FED329B7E300090002821DC44
:104CC00053EC192B51EC180B01F02CFA1AD00021DF
:104CD00040F608004FF00000044651EC180B01F0BC
:104CE000DBF908EE100A40F6080004EA00014FF074
:104CF0000000B5EEC08AF1EE10FA04BF0220FBF707
:104D00006AFC2DE00098FF2830DB002108464FF0B8
:104D1000000000F4400553EC192B51EC180B01F086
:104D200077FB8CBF002401240220FBF754FC9FED8D
:104D3000168A4DB1002C0CBF4FF400004FF48000D8
:104D4000A84218BF9FED118A042108464FF00000C9
:104D5000002C01BFB1EE480A01B0BDEC048B30BDA0
:104D6000B0EE480A01B0BDEC048B30BD51EC180B1D
:104D700001F092F901B000EE100ABDEC048B30BDD9
:104D800000000000000000000000807FFFFF7F7F28
:104D900030B583B00446FBF719FC9FED090B0546BF
:104DA0008DED000B002221466846FBF765FE284684
:104DB000FBF711FC9DED000B03B030BD00000000BF
:104DC000000000000000000030B540F2FF742DED3F
:104DD000048BF0EE608A18EE901A85B0B0EE408A2F
:104DE0009FED2B9B05468DED008B34EA115147D08A
:104DF00053EC192B51EC180B01F094F940D02A46D2
:104E000051EC180B01F0ECFB41EC180B18EE900A7A
:104E10008DED008B34EA10501CD053EC192B51EC63
:104E2000180B01F07FF92BD10220FBF7D4FB00F027
:104E300043F810EE901A18EE900A8DED020B8DEDEE
:104E4000008B61F31E0003909DED020B05B0BDECDD
:104E5000048B30BD0220FBF7BEFB00F01DF810EE06
:104E6000901A18EE900A8DED020B8DED008B61F318
:104E70001E0003909DED020B05B0BDEC048B30BD10
:104E800005B0B0EE480AF0EE680ABDEC048B30BD08
:104E900000000000000000009FED050B10B553EC72
:104EA000102B51EC100B01F0B5F941EC100B10BDBB
:104EB00000000000000000709FED050B10B553ECE2
:104EC000102B51EC100B01F0A5F941EC100B10BDAB
:104ED000000000000000001010B5044691ED000B2A
:104EE000FFF7DAFE84ED000A10BD10B5044690ED20
:104EF000000B0846FFF768FF84ED000B10BD30384B
:104F00000A2801D201207047002070477047000036
:104F100010B504460420FDF7D3FF0148046010BD1E
:104F20001000002070B5054600244FF47A7603E0A7
:104F3000304600F005F8641CAC42F9D370BD0000A7
:104F400070B54FF0E02500216C69094AAB69126821
:104F50005043AA699A42FCD002D2A3EB020302E0BA
:104F6000A4EB02063344194413468142F1D370BDC9
:104F7000100000200000000010B582B01446CDE9FA
:104F800000010023009A2360194B21F00040984251
:104F90002ADA024328D0B0F5801FA8BF226810DAB1
:104FA0009FED150B53EC102B9DED000B51EC100BEE
:104FB00001F030F9CDE900016FF0350221F0004039
:104FC00022600F4B6FF31E5103EB20501044206002
:104FD00041F0FF5040F0005001909DED000B00BFEC
:104FE00002B051EC100B10BD9DED000BF8E7000076
:104FF0000000F07F000000000000000000005043AF
:1050000002FCFFFFFDF7D4FA0723022208214FF428
:10501000A870FFF779F9A820FFF77AFF4FF4E13085
:1050200000F0F2FFFEF7E2FEFEF71CFCFEF7CCFB01
:10503000FCF7BCFFFEF70AFFFFF79AFCFEF7A6FF9E
:1050400024480127C0F890722349C1F88072C0F843
:105050008C72224D0026C5F88862C5F89062C5F8AA
:105060008C624FF4FA70FFF75DFFDFF874A0DFF891
:105070007480DFF874909AF8000008B1FEF74AFCDB
:10508000D8F814024446012808D10A20FFF74AFF45
:10509000D4F81402012801D1C5F88C72D4F8180292
:1050A000012808D10A20FFF73DFFD4F81802012893
:1050B00001D1C5F88C6299F800004C460028DAD07E
:1050C000C5F884722820FFF72DFFC5F8846226708A
:1050D000D1E7000000004042008040420000414211
:1050E0001F000020000042421D000020016890F8CF
:1050F0003820097C12FB01F1C900406BFBF7D9B9DC
:1051000010B5044600F0C2F8204600F009F9002866
:10511000FAD12046BDE81040002100F029B92DE960
:10512000F8438146089C1F46101980B20090C819A8
:1051300083B215468846484600F0DAF800280ED0BB
:105140000026002C0BD03B462A4641464846009696
:1051500000F03FF86D1C641EADB2A4B2F1E7BDE8EB
:10516000F8832DE9F041044690F870001F4615467B
:105170000E4630B1012809D002280CD0032815D1E1
:105180000FE0E16D20468847284408E0E16D2046A5
:105190008847301A09E0E16D20468847281A85B211
:1051A00004E0E16D20468847304486B22846A4F8E2
:1051B0006460A4F8660039460025204600F02EFB06
:1051C000010003D0204600F05BFA85B22846BDE816
:1051D000F0813FB581B0044690F88C000899002812
:1051E00039D0BDF81000002835D0012811D9022986
:1051F00002D0032907D00CE0BDF80820101A401C8B
:10520000ADF8080005E0BDF80C20101A401CADF800
:105210000C0011F0010520D0B4F84810BDF80800CA
:10522000814218D8B4F84A10814214D9B4F84E30EB
:10523000B4F84C2004A903A800F094F900280AD07F
:105240000095206BBDF81030BDF80C208568BDF8C6
:1052500008102046A84705B030BDB4F84C10BDF882
:105260000C008142F7D8B4F84E108142F3D9B4F85B
:105270004A30B4F8482004A902A8DDE730B4024C53
:10528000446030BC00F09BB9115C000810B590F888
:105290009310044609B1FFF729FF2046BDE81040EE
:1052A000002100F065B870B5044600F0B7FA0100BF
:1052B00016D0204600F0F5FA04F1600094F87A1058
:1052C000054600F0B9F984F8900014F87B1F2846D1
:1052D00000F0B2F961782846BDE8704000F0ACB942
:1052E000002070BD014A426000F0DDBB115C000887
:1052F00070B50D461E460446B0F84E10B0F84C008E
:10530000049B00F029FB002809D0B4F84A10B4F837
:10531000480033462A46BDE8704000F01DBB70BD12
:1053200070B5044600F099FB94F8390094F83810F1
:105330000844C5B22068407CA84204D8204600F04A
:105340002CFC002070BD94F8930010B12046FFF7AC
:10535000CDFE2946204600F00BF8012070BD10B5A7
:10536000044600F07AFB2046BDE8104000F015BC72
:1053700010B5044680F83910006B01682046884754
:10538000206B41682046BDE81040084780F8921025
:10539000032902D3012180F89210704710B504460A
:1053A000806D884209D004F17400A16500F020FBF3
:1053B0002046BDE8104000F059B810BD0149C16554
:1053C000704700002B5600080149C1657047000076
:1053D0002F5600080021A0F85010A0F854104FF6E6
:1053E000FF71A0F85210A0F85610016B49680847E9
:1053F00070B5044600250498A565E362616384F8EE
:10540000382084F8395084F86D5084F89150012187
:1054100084F8921084F8931020630168204688472E
:105420002046FFF7D7FF2046FFF7C8FF84F87050EB
:1054300070BD00007CB50C46009313460546084A33
:10544000084900F0BAFB01A800F0CCFA0146064B6F
:1054500000949DF804202846FFF7CAFF7CBD000099
:10546000C95D00082D5F00087159000810B5816DF5
:1054700000291AD090F9813080F88E3090F982207E
:1054800080F88F2090F88D1000290ED001290DD0C2
:1054900090F97E4090F980100C449C4201DD80F828
:1054A0008E408A4201DD80F88F1010BD90F9831084
:1054B0008B4201DA80F88E1090F98410F1E72BB15D
:1054C000012B05D0022B06D0104402E0084400E076
:1054D000801A80B27047401AFBE72BB1012B05D030
:1054E000022B06D0401A02E0104400E0084480B2CB
:1054F0007047801AFBE738B50446B0F856000090B4
:10550000B4F85230B4F85420B4F850102046FFF7E5
:10551000EFFE18B3012084F88C00B4F84810B4F8FA
:105520005000814201D2A4F84800B4F84A10B4F8FF
:105530005200814201D9A4F84A00B4F84C10B4F8E2
:105540005400814201D2A4F84C00B4F84E10B4F8D3
:105550005600814201D9A4F84E0038BD002084F8DD
:105560008C0038BD30B504880D882544ADB2AC42FE
:1055700005D99C4202D25D1EADB200E014469C42A9
:1055800001D2954201D8002030BD944200D2144689
:105590009D4200D91D460480281B0880012030BD93
:1055A00038B5C58F049C0094521BC46A92B2A047C0
:1055B00038BD38B5049C0094FFF7F2FF38BD2DE9E3
:1055C000F0471E4614460D46804600F019FD0027A0
:1055D0004FF6FF79D8F804203178404690470346CB
:1055E00048451FD0761CA3F57F40FE38F2D02246F6
:1055F00029464046FFF7B5FD98F8701031B10129F2
:1056000006D0022906D0032909D106E0291802E0B4
:10561000211803E0291A8DB201E0211A8CB2384416
:1056200087B2D7E73846BDE8F0870020704790F989
:105630008E00401C80B2704710B50C4600F006F892
:105640000122641EA240801A40B210BD30B5056828
:10565000047B2B78E3406218D2B2082A09D36D1C70
:1056600005602D78C4F10804A5401D43083AEBB24B
:10567000D2B201248C40641E1C400273204630BD0F
:105680002DE9F843054600F1600400F00AF915F928
:105690006B6F2046E97BFFF7CFFF8146297C2046D0
:1056A000FFF7CAFF0746697C20466B3DFFF7C4FF42
:1056B000804694F90A00002856DDF019404242B2B3
:1056C000237C1746A0884946FFF7F9FEA080237C7B
:1056D0003A46E0884946FFF700FFE080A188277C32
:1056E00002460B4637B1012F0AD0022F3FD0032FBD
:1056F0000FD145E094F90A7030443B449BB207E077
:10570000891B491C94F90A705B1C89B29BB238440E
:1057100080B200902846FFF7EBFD28B300202072EE
:10572000607295F876102046FFF790FF814695F855
:1057300077102046FFF78AFF074600224946284691
:1057400000F027F801223946284600F022F801210E
:105750002046FFF77BFF0028EFD194F90900B04203
:10576000DFDBA07B85F892004046BDE8F88394F922
:105770000A705B1CC91B491C89B29BB2921B04E0D6
:1057800094F90A7033449BB2D21B521C92B2401C53
:10579000BEE72DE9F74F00F1600490F86880677A62
:1057A00084B00D468146A07AA0EB0800C6B2B2468E
:1057B000B54200D2AA46A088E1880291237C7AB241
:1057C0004FFA88F18B460092FFF779FE0190237C17
:1057D0005946009A0298FFF780FE0246069808B1E3
:1057E000A17B02E0607B48B9E17B89F89210207CC4
:1057F0000090534648460199FFF7EBFCB54206D3AB
:10580000A81B7F1CC5B24FF00008FFB2CBE708EB26
:1058100005002072677207B0BDE8F08F70B50D46C5
:105820000146806D1730FF2D10D8612D02D3B1F8DD
:10583000881003E0412D02D3B1F886100844417866
:1058400019B30278AA42F9D1801C70BDB1F88A1050
:105850000C1826460021304600F019F804440221B5
:10586000304600F014F8361DA842F3D34FF6FF720D
:10587000207802EA00216078084306D0A84201D1CE
:10588000E01C70BDA0780444F2E7002070BD08441D
:105890004FF6FF720178407802EA0121084480B295
:1058A000704730B5054600F16004016600202073A2
:1058B00015F8781F2046FFF7C9FEA07269782046C8
:1058C000FFF7C4FEE072A87EA07310B10020E07361
:1058D00030BD0120FBE7000010B510462B291CD07D
:1058E00006DC28290FD0292910D02A2909D110E057
:1058F00000230124164A402912D0412917D04929F2
:105900001CD0002010BDFDF7C9FF1EE0FFF70AFB09
:105910001BE00A20FFF714FB17E000BF00BF14E0F4
:1059200010B1C2F8B84210E0C2F8B8320DE010B1C0
:10593000C2F8B04209E0C2F8B03206E0054910B141
:10594000C1F88C4201E0C1F88C32012010BD00008A
:1059500000004342000042428A4205D2834201D8FD
:105960009A4203D9012070478342F9D8002070473A
:10597000F0B5046801F00707059E257C8024FC40F3
:105980006A4302EBD101426B89B21144B6B990F877
:105990009220012A06D80A7822430A7090F89220B1
:1059A000012A02D00A7862400A70640801D180247A
:1059B000491C5B1E1B041B0CE9D1F0BD90F8922022
:1059C000012A06D80A7822430A7090F89220012A08
:1059D00002D00A7862400A705B1E1B0429441B0C2B
:1059E000ECD1F0BD0821017000487047FC01002097
:1059F00070B5044608782070487860708878A07088
:105A0000C878E070087920714879607188790D460E
:105A1000A071E879E071287A2072687A6072A87AB9
:105A2000A072E87AE072287B2073687B6073A87BA1
:105A3000A073E87BE073287C207411212846FFF7CF
:105A400026FF608213212846FFF721FFA08215213F
:105A50002846FFF71CFFE08270BD2DE9F84307469A
:105A600090F8389090F83950006800244FF6FF788D
:105A7000467C396838462A460B7C796B04FB03FC6C
:105A80001FFA8CFC08EACC0C61440091002100F064
:105A90006DF8641C6D1CE4B2EDB24C4501D2B54208
:105AA000E7D3BDE8F8832DE9F0470746002087F8E3
:105AB0006A000E46384600F0A3FA002425464FF649
:105AC000FF784FF6FE797A6831783846904701467C
:105AD000404509D0761C4945F5D03846FFF7E3FB31
